{
  "contractName": "BalanceContract",
  "abi": [
    {
      "inputs": [],
      "stateMutability": "nonpayable",
      "type": "constructor"
    },
    {
      "inputs": [
        {
          "internalType": "address",
          "name": "walletAddress",
          "type": "address"
        }
      ],
      "name": "getBalance",
      "outputs": [
        {
          "internalType": "uint256",
          "name": "",
          "type": "uint256"
        }
      ],
      "stateMutability": "view",
      "type": "function",
      "constant": true
    }
  ],
  "bytecode": "0x608060405234801561001057600080fd5b5061017b806100206000396000f3fe608060405234801561001057600080fd5b506004361061002b5760003560e01c8063f8b2cb4f14610030575b600080fd5b61004a600480360381019061004591906100e4565b610060565b604051610057919061012a565b60405180910390f35b60008173ffffffffffffffffffffffffffffffffffffffff16319050919050565b600080fd5b600073ffffffffffffffffffffffffffffffffffffffff82169050919050565b60006100b182610086565b9050919050565b6100c1816100a6565b81146100cc57600080fd5b50565b6000813590506100de816100b8565b92915050565b6000602082840312156100fa576100f9610081565b5b6000610108848285016100cf565b91505092915050565b6000819050919050565b61012481610111565b82525050565b600060208201905061013f600083018461011b565b9291505056fea26469706673582212205170e8595c2c8f23122ca081a1285d7418cd60da7dbaca037c36dd02d7cbed7164736f6c63430008130033",
  "immutableReferences": {},
  "source": "// SPDX-License-Identifier: MIT\npragma solidity >=0.4.22 <0.9.0;\n\ncontract BalanceContract {\n  constructor() public {}\n\n  function getBalance(address walletAddress) external view returns(uint256){\n    return walletAddress.balance;\n  }\n}\n",
  "sourcePath": "/home/knightbreaker/Desktop/OpenCharity_contracts/contracts/BalanceContract.sol",
  "compiler": {
    "name": "solc",
    "version": "0.8.19+commit.7dd6d404.Emscripten.clang"
  },
  "schemaVersion": "3.4.13",
  "updatedAt": "2023-11-27T16:44:08.518Z",
  "networkType": "ethereum",
  "devdoc": {
    "kind": "dev",
    "methods": {},
    "version": 1
  },
  "userdoc": {
    "kind": "user",
    "methods": {},
    "version": 1
  }
}