{
  "contractName": "DonationContract",
  "abi": [
    {
      "inputs": [],
      "stateMutability": "nonpayable",
      "type": "constructor"
    },
    {
      "inputs": [
        {
          "internalType": "address payable",
          "name": "beneficiary",
          "type": "address"
        },
        {
          "internalType": "uint256",
          "name": "amount",
          "type": "uint256"
        }
      ],
      "name": "donateEther",
      "outputs": [],
      "stateMutability": "payable",
      "type": "function",
      "payable": true
    }
  ],
  "bytecode": "0x608060405234801561001057600080fd5b50610259806100206000396000f3fe60806040526004361061001e5760003560e01c806334b29d7c14610023575b600080fd5b61003d60048036038101906100389190610166565b61003f565b005b80471015610082576040517f08c379a000000000000000000000000000000000000000000000000000000000815260040161007990610203565b60405180910390fd5b8173ffffffffffffffffffffffffffffffffffffffff166108fc829081150290604051600060405180830381858888f193505050501580156100c8573d6000803e3d6000fd5b505050565b600080fd5b600073ffffffffffffffffffffffffffffffffffffffff82169050919050565b60006100fd826100d2565b9050919050565b61010d816100f2565b811461011857600080fd5b50565b60008135905061012a81610104565b92915050565b6000819050919050565b61014381610130565b811461014e57600080fd5b50565b6000813590506101608161013a565b92915050565b6000806040838503121561017d5761017c6100cd565b5b600061018b8582860161011b565b925050602061019c85828601610151565b9150509250929050565b600082825260208201905092915050565b7f496e73756666696369656e742066756e64730000000000000000000000000000600082015250565b60006101ed6012836101a6565b91506101f8826101b7565b602082019050919050565b6000602082019050818103600083015261021c816101e0565b905091905056fea26469706673582212200385f6d7f84a3767fcc588e00a0252bdda36453687091f9f7eea21e67c12e46b64736f6c63430008130033",
  "immutableReferences": {},
  "source": "// SPDX-License-Identifier: MIT\npragma solidity ^0.8.0;\n\ncontract DonationContract {\n\n    constructor() public {}\n\n    function donateEther(address payable beneficiary, uint256 amount) external payable {\n        require(address(this).balance >= amount, \"Insufficient funds\");\n\n        beneficiary.transfer(amount);\n    }\n}",
  "sourcePath": "/home/knightbreaker/Desktop/OpenCharity_contracts/contracts/DonationContract.sol",
  "compiler": {
    "name": "solc",
    "version": "0.8.19+commit.7dd6d404.Emscripten.clang"
  },
  "schemaVersion": "3.4.13",
  "updatedAt": "2023-11-27T16:44:08.514Z",
  "networkType": "ethereum",
  "devdoc": {
    "kind": "dev",
    "methods": {},
    "version": 1
  },
  "userdoc": {
    "kind": "user",
    "methods": {},
    "version": 1
  }
}