{
  "contractName": "DonationContract",
  "abi": [
    {
      "inputs": [
        {
          "internalType": "address payable",
          "name": "beneficiary",
          "type": "address"
        },
        {
          "internalType": "uint256",
          "name": "amount",
          "type": "uint256"
        }
      ],
      "name": "donateEther",
      "outputs": [
        {
          "internalType": "bool",
          "name": "",
          "type": "bool"
        }
      ],
      "stateMutability": "payable",
      "type": "function",
      "payable": true
    }
  ],
  "bytecode": "0x608060405234801561001057600080fd5b506103c2806100206000396000f3fe60806040526004361061001e5760003560e01c806334b29d7c14610023575b600080fd5b61003d600480360381019061003891906101e7565b610053565b60405161004a9190610242565b60405180910390f35b600081471015610098576040517f08c379a000000000000000000000000000000000000000000000000000000000815260040161008f906102ba565b60405180910390fd5b60008373ffffffffffffffffffffffffffffffffffffffff16836040516100be9061030b565b60006040518083038185875af1925050503d80600081146100fb576040519150601f19603f3d011682016040523d82523d6000602084013e610100565b606091505b5050905080610144576040517f08c379a000000000000000000000000000000000000000000000000000000000815260040161013b9061036c565b60405180910390fd5b8091505092915050565b600080fd5b600073ffffffffffffffffffffffffffffffffffffffff82169050919050565b600061017e82610153565b9050919050565b61018e81610173565b811461019957600080fd5b50565b6000813590506101ab81610185565b92915050565b6000819050919050565b6101c4816101b1565b81146101cf57600080fd5b50565b6000813590506101e1816101bb565b92915050565b600080604083850312156101fe576101fd61014e565b5b600061020c8582860161019c565b925050602061021d858286016101d2565b9150509250929050565b60008115159050919050565b61023c81610227565b82525050565b60006020820190506102576000830184610233565b92915050565b600082825260208201905092915050565b7f496e73756666696369656e742066756e64730000000000000000000000000000600082015250565b60006102a460128361025d565b91506102af8261026e565b602082019050919050565b600060208201905081810360008301526102d381610297565b9050919050565b600081905092915050565b50565b60006102f56000836102da565b9150610300826102e5565b600082019050919050565b6000610316826102e8565b9150819050919050565b7f5472616e73666572206661696c65640000000000000000000000000000000000600082015250565b6000610356600f8361025d565b915061036182610320565b602082019050919050565b6000602082019050818103600083015261038581610349565b905091905056fea26469706673582212205665dfcaadc3e83a42581987422fc8ccdcf846aae0280ad74d524c07a4b43a7464736f6c63430008130033",
  "immutableReferences": {},
  "source": "// SPDX-License-Identifier: MIT\npragma solidity ^0.8.0;\n\ncontract DonationContract {\n\n    function donateEther(address payable beneficiary, uint256 amount) public payable returns(bool) {\n        require(address(this).balance >= amount, \"Insufficient funds\");\n\n        (bool success,) = beneficiary.call{value: amount}(\"\");\n        require(success, \"Transfer failed\");\n        return success;\n    }\n}",
  "sourcePath": "/home/knightbreaker/Desktop/OpenCharity_contracts/contracts/DonationContract.sol",
  "compiler": {
    "name": "solc",
    "version": "0.8.19+commit.7dd6d404.Emscripten.clang"
  },
  "schemaVersion": "3.4.13",
  "updatedAt": "2023-11-26T23:20:42.365Z",
  "networkType": "ethereum",
  "devdoc": {
    "kind": "dev",
    "methods": {},
    "version": 1
  },
  "userdoc": {
    "kind": "user",
    "methods": {},
    "version": 1
  }
}